S01700004750494F5F41544D454741333238502E73726563E3
S11300000C9434000C943E000C943E000C943E007E
S11300100C943E000C943E000C943E000C943E0064
S11300200C943E000C943E000C943E000C943E0054
S11300300C943E000C943E000C943E000C943E0044
S11300400C943E000C943E000C943E000C943E0034
S11300500C943E000C943E000C943E000C943E0024
S11300600C943E000C943E0011241FBECFEFD8E048
S1130070DEBFCDBF0E9440000C9456000C940000DB
S113008084B18B7F84B985B1846085B987B1886078
S113009087B988B1877F88B91A9904C088B1886004
S11300A088B9FACF88B1877F88B9F6CFF894FFCFA3
S9030000FC
