S0130000454A454D504C4F5F4C49422E73726563CF
S11300000C9434000C943E000C943E000C943E007E
S11300100C943E000C943E000C943E000C943E0064
S11300200C943E000C943E000C943E000C943E0054
S11300300C943E000C943E000C943E000C943E0044
S11300400C943E000C943E000C943E000C943E0034
S11300500C943E000C943E000C943E000C943E0024
S11300600C943E000C943E0011241FBECFEFD8E048
S1130070DEBFCDBF0E946F000C949D020C94000063
S1130080ECE7F0E080818064808380818F778083D7
S113009080818F7D8083EAE7F0E0808181608083C6
S11300A08081826080838081846080838081806895
S11300B0808308958F70ECE7F0E09081907F892B26
S11300C08083EAE7F0E080818064808380917A0015
S11300D086FDFCCF809178009091790008958FEF90
S11300E08AB90E9494000E94400060E08AE00E9465
S11300F0C00081E00E945A00BC0180E090E00E94B0
S11301007A0120E030E048EC52E40E94080220E04A
S113011030EC4FE754E40E94D9000E944B01862F33
S113012061E00E94A700E5CF85B5877F85BD84B5D2
S1130130826084BD84B5816084BD85B58B7F85BDB7
S113014085B5826085BD85B5816085BD08956130C2
S113015039F494B5906894BD94B59F7B94BD06C062
S113016094B5906894BD94B5906494BD2FEF829F2C
S1130170C001112464E670E00E94750267BD089511
S1130180613039F494B5906294BD94B59F7E94BD6A
S113019006C094B5906294BD94B5906194BD2FEF60
S11301A0829FC001112464E670E00E94750268BD5C
S11301B008950E94ED000C94CE010E94C70158F0EE
S11301C00E94C00140F029F45F3F29F00C94B7016C
S11301D051110C9402020C94BD010E94DF0168F3DA
S11301E09923B1F3552391F3951B550BBB27AA27EC
S11301F062177307840738F09F5F5F4F220F331F26
S1130200441FAA1FA9F335D00E2E3AF0E0E832D0ED
S113021091505040E695001CCAF72BD0FE2F29D0F0
S1130220660F771F881FBB1F261737074807AB07C2
S1130230B0E809F0BB0B802DBF01FF2793585F4F37
S11302403AF09E3F510578F00C94B7010C940202E9
S11302505F3FE4F3983ED4F3869577956795B79519
S1130260F7959F5FC9F7880F911D9695879597F924
S11302700895E1E0660F771F881FBB1F621773079D
S11302808407BA0720F0621B730B840BBA0BEE1FB2
S113029088F7E09508950E94E70188F09F5798F049
S11302A0B92F9927B751B0F0E1F0660F771F881F77
S11302B0991F1AF0BA95C9F714C0B13091F00E9491
S11302C00102B1E008950C940102672F782F88276A
S11302D0B85F39F0B93FCCF3869577956795B395B8
S11302E0D9F73EF490958095709561957F4F8F4F27
S11302F09F4F0895E89409C097FB3EF4909580952C
S1130300709561957F4F8F4F9F4F9923A9F0F92FD7
S113031096E9BB279395F695879577956795B79555
S1130320F111F8CFFAF4BB0F11F460FF1BC06F5F3B
S11303307F4F8F4F9F4F16C0882311F096E911C04D
S1130340772321F09EE8872F762F05C0662371F06E
S113035096E8862F70E060E02AF09A95660F771F82
S1130360881FDAF7880F9695879597F9089597F976
S11303709F6780E870E060E008959FEF80EC089547
S113038000240A9416161706180609060895002470
S11303900A9412161306140605060895092E0394EA
S11303A0000C11F4882352F0BB0F40F4BF2B11F45E
S11303B060FF04C06F5F7F4F8F4F9F4F089557FDBD
S11303C09058440F551F59F05F3F71F04795880FBF
S11303D097FB991F61F09F3F79F087950895121656
S11303E013061406551FF2CF4695F1DF08C0161602
S11303F017061806991FF1CF8695710561050894B3
S11304000895E894BB2766277727CB0197F90895C9
S11304100E941B020C94CE010E94C00138F00E947D
S1130420C70120F0952311F00C94B7010C94BD0181
S113043011240C9402020E94DF0170F3959FC1F312
S1130440950F50E0551F629FF001729FBB27F00D7E
S1130450B11D639FAA27F00DB11DAA1F649F6627D3
S1130460B00DA11D661F829F2227B00DA11D621F22
S1130470739FB00DA11D621F839FA00D611D221FDC
S1130480749F3327A00D611D231F849F600D211DC0
S1130490822F762F6A2F11249F5750409AF0F1F043
S11304A088234AF0EE0FFF1FBB1F661F771F881FAC
S11304B091505040A9F79E3F510580F00C94B7012C
S11304C00C9402025F3FE4F3983ED4F3869577954B
S11304D06795B795F795E7959F5FC1F7FE2B880F52
S11304E0911D9695879597F9089597FB072E16F415
S11304F0009407D077FD09D00E94890207FC05D03B
S11305003EF4909581959F4F0895709561957F4F26
S11305100895AA1BBB1B51E107C0AA1FBB1FA61746
S1130520B70710F0A61BB70B881F991F5A95A9F798
S111053080959095BC01CD010895F894FFCFFD
S9030000FC
