:100000000C9434000C9440000C9440000C943E007E
:100010000C943E000C943E000C943E000C943E0068
:100020000C943E000C943E000C943E000C943E0058
:100030000C943E000C943E000C943E000C943E0048
:100040000C943E000C943E000C943E000C943E0038
:100050000C943E000C943E000C943E000C943E0028
:100060000C943E000C943E0011241FBECFEFD8E04C
:10007000DEBFCDBF0E9452000C9472000C940000B1
:100080001F920F920FB60F9211248F939F9398B1E6
:1000900081E0892788B99F918F910F900FBE0F90B3
:1000A0001F90189587B1816087B988B18E7F88B914
:1000B00087B1826087B988B18D7F88B98AB18B7F1B
:1000C0008AB98BB184608BB98AB1877F8AB98BB1C9
:1000D00088608BB98AE08093690083E08DBB1CBA8D
:0800E0007894FFCFF894FFCFE4
:00000001FF
