:100000000C9434000C9449000C9449000C94490061
:100010000C9449000C9449000C9449000C9449003C
:100020000C9449000C9449000C9449000C9449002C
:100030000C9449000C9449000C9449000C9449001C
:100040000C9449000C9449000C9449000C9449000C
:100050000C9449000C9449000C9449000C944900FC
:100060000C9449000C94490011241FBECFEFD8E036
:10007000DEBFCDBF11E0A0E0B1E0ECE9F1E002C0ED
:1000800005900D92A23AB107D9F70E947D000C9419
:10009000CC000C9400008AB182608AB98AB18E7F4C
:1000A0008AB91092C00088E98093C10086E08093ED
:1000B000C20087E690E09093C5008093C400089545
:1000C0008091C00088231CF48091C600089580E0D0
:1000D00008959091C00095FFFCCF8093C6000895CD
:1000E000CF93DF93EC0103C00E94690021968881C1
:1000F0008111FACFDF91CF9108958AB18C618AB9CD
:100100000E944B0080E091E00E94700082E291E04A
:100110000E9470000E9460008823E1F38333E1F0C5
:1001200028F4813349F0823379F0F4CF853321F11B
:10013000D8F0863349F1EECF82E491E00E9470005E
:100140008BB184608BB9E6CF83E591E00E947000AB
:100150008BB18B7F8BB9DECF82E691E00E9470007D
:100160008BB188608BB9D6CF83E791E00E94700095
:100170008BB1877F8BB9CECF82E891E00E9470006F
:100180008BB180618BB9C6CF83E991E00E9470008A
:0C0190008BB18F7E8BB9BECFF894FFCFEF
:10019C006469676974652031203320352070617281
:1001AC006120656E63656E646572206C6564730AAC
:1001BC000D00646967697465203220342036207024
:1001CC0061726120617061676172206C6564730A91
:1001DC000D004C45443120656E63656E6469646F37
:1001EC000A0D004C454431206170616761646F0AEF
:1001FC000D004C45443220656E63656E6469646F16
:10020C000A0D004C454432206170616761646F0ACD
:10021C000D004C45443320656E63656E6469646FF4
:10022C000A0D004C454433206170616761646F0AAC
:02023C000D00B3
:00000001FF
