S010000050574D5F464153542E7372656393
S11300000C9434000C943E000C943E000C943E007E
S11300100C943E000C943E000C943E000C943E0064
S11300200C943E000C943E000C943E000C943E0054
S11300300C943E000C943E000C943E000C943E0044
S11300400C943E000C943E000C943E000C943E0034
S11300500C943E000C943E000C943E000C943E0024
S11300600C943E000C943E0011241FBECFEFD8E048
S1130070DEBFCDBF0E9440000C9471000C940000C0
S11300808AB180628AB98AB180648AB985B5877F6A
S113009085BD84B5826084BD84B5816084BD85B529
S11300A08B7F85BD85B5826085BD85B5816085BD45
S11300B084B5806884BD84B58F7B84BD84B580623B
S11300C084BD84B5806184BD17BC8FE388BD80E0A6
S11300D08F5F87BDEFE3FCE93197F1F700C00000C3
S10900E0F7CFF894FFCFF6
S9030000FC
